{
  "contractName": "BloodBank",
  "abi": [
    {
      "anonymous": false,
      "inputs": [
        {
          "indexed": true,
          "internalType": "address",
          "name": "bbAddress",
          "type": "address"
        },
        {
          "indexed": true,
          "internalType": "string",
          "name": "bbName",
          "type": "string"
        }
      ],
      "name": "BloodBankAdded",
      "type": "event"
    },
    {
      "anonymous": false,
      "inputs": [
        {
          "indexed": true,
          "internalType": "address",
          "name": "from",
          "type": "address"
        },
        {
          "indexed": true,
          "internalType": "address",
          "name": "to",
          "type": "address"
        },
        {
          "indexed": false,
          "internalType": "uint256",
          "name": "bloodType",
          "type": "uint256"
        }
      ],
      "name": "BloodTransferred",
      "type": "event"
    },
    {
      "inputs": [
        {
          "internalType": "address",
          "name": "",
          "type": "address"
        }
      ],
      "name": "bloodBanks",
      "outputs": [
        {
          "internalType": "uint256",
          "name": "apos",
          "type": "uint256"
        },
        {
          "internalType": "uint256",
          "name": "aneg",
          "type": "uint256"
        },
        {
          "internalType": "uint256",
          "name": "bpos",
          "type": "uint256"
        },
        {
          "internalType": "uint256",
          "name": "bneg",
          "type": "uint256"
        },
        {
          "internalType": "uint256",
          "name": "abpos",
          "type": "uint256"
        },
        {
          "internalType": "uint256",
          "name": "abneg",
          "type": "uint256"
        },
        {
          "internalType": "uint256",
          "name": "opos",
          "type": "uint256"
        },
        {
          "internalType": "uint256",
          "name": "oneg",
          "type": "uint256"
        }
      ],
      "stateMutability": "view",
      "type": "function",
      "constant": true
    },
    {
      "inputs": [],
      "name": "totalBloodUnits",
      "outputs": [
        {
          "internalType": "uint256",
          "name": "",
          "type": "uint256"
        }
      ],
      "stateMutability": "view",
      "type": "function",
      "constant": true
    },
    {
      "inputs": [
        {
          "internalType": "address",
          "name": "_bbAddress",
          "type": "address"
        },
        {
          "internalType": "string",
          "name": "_bbName",
          "type": "string"
        }
      ],
      "name": "addBloodBank",
      "outputs": [],
      "stateMutability": "nonpayable",
      "type": "function"
    },
    {
      "inputs": [
        {
          "internalType": "address",
          "name": "_to",
          "type": "address"
        },
        {
          "internalType": "uint256",
          "name": "_bloodType",
          "type": "uint256"
        }
      ],
      "name": "transferBlood",
      "outputs": [],
      "stateMutability": "nonpayable",
      "type": "function"
    }
  ],
  "bytecode": "0x608060405234801561001057600080fd5b50610a5d806100206000396000f3fe608060405234801561001057600080fd5b506004361061004c5760003560e01c806301cd125214610051578063b5eae3ad1461006d578063c27f2db71461008b578063e4334152146100c2575b600080fd5b61006b60048036038101906100669190610707565b6100de565b005b610075610479565b604051610082919061079a565b60405180910390f35b6100a560048036038101906100a0919061068a565b61047f565b6040516100b99897969594939291906107b5565b60405180910390f35b6100dc60048036038101906100d791906106b3565b6104c7565b005b6000600160003373ffffffffffffffffffffffffffffffffffffffff1673ffffffffffffffffffffffffffffffffffffffff16815260200190815260200160002090506000600160008573ffffffffffffffffffffffffffffffffffffffff1673ffffffffffffffffffffffffffffffffffffffff1681526020019081526020016000209050600183148015610178575060008260000154115b156101b65781600001600081548092919061019290610928565b91905055508060000160008154809291906101ac90610952565b91905055506103f7565b6002831480156101ca575060008260010154115b15610208578160010160008154809291906101e490610928565b91905055508060010160008154809291906101fe90610952565b91905055506103f6565b60038314801561021c575060008260020154115b1561025a5781600201600081548092919061023690610928565b919050555080600201600081548092919061025090610952565b91905055506103f5565b60048314801561026e575060008260030154115b156102ac5781600301600081548092919061028890610928565b91905055508060030160008154809291906102a290610952565b91905055506103f4565b6005831480156102c0575060008260040154115b156102fe578160040160008154809291906102da90610928565b91905055508060040160008154809291906102f490610952565b91905055506103f3565b600683148015610312575060008260050154115b156103505781600501600081548092919061032c90610928565b919050555080600501600081548092919061034690610952565b91905055506103f2565b600783148015610364575060008260060154115b156103a25781600601600081548092919061037e90610928565b919050555080600601600081548092919061039890610952565b91905055506103f1565b6008831480156103b6575060008260070154115b156103f0578160070160008154809291906103d090610928565b91905055508060070160008154809291906103ea90610952565b91905055505b5b5b5b5b5b5b5b60008081548092919061040990610952565b91905055508373ffffffffffffffffffffffffffffffffffffffff163373ffffffffffffffffffffffffffffffffffffffff167fbc3e8d552e7396d1d5b6548bbdb150b288e6cbfc49154e5d07798f8ad9b77b378560405161046b919061079a565b60405180910390a350505050565b60005481565b60016020528060005260406000206000915090508060000154908060010154908060020154908060030154908060040154908060050154908060060154908060070154905088565b604051806101000160405280600081526020016000815260200160008152602001600081526020016000815260200160008152602001600081526020016000815250600160008473ffffffffffffffffffffffffffffffffffffffff1673ffffffffffffffffffffffffffffffffffffffff168152602001908152602001600020600082015181600001556020820151816001015560408201518160020155606082015181600301556080820151816004015560a0820151816005015560c0820151816006015560e08201518160070155905050806040516105a99190610783565b60405180910390208273ffffffffffffffffffffffffffffffffffffffff167ff389c523d18e5f537f8f0d3a061d1082ab9c1b309872093824fb3a61255976f260405160405180910390a35050565b600061060b61060684610864565b610833565b90508281526020810184848401111561062357600080fd5b61062e8482856108e6565b509392505050565b600081359050610645816109f9565b92915050565b600082601f83011261065c57600080fd5b813561066c8482602086016105f8565b91505092915050565b60008135905061068481610a10565b92915050565b60006020828403121561069c57600080fd5b60006106aa84828501610636565b91505092915050565b600080604083850312156106c657600080fd5b60006106d485828601610636565b925050602083013567ffffffffffffffff8111156106f157600080fd5b6106fd8582860161064b565b9150509250929050565b6000806040838503121561071a57600080fd5b600061072885828601610636565b925050602061073985828601610675565b9150509250929050565b600061074e82610894565b610758818561089f565b93506107688185602086016108f5565b80840191505092915050565b61077d816108dc565b82525050565b600061078f8284610743565b915081905092915050565b60006020820190506107af6000830184610774565b92915050565b6000610100820190506107cb600083018b610774565b6107d8602083018a610774565b6107e56040830189610774565b6107f26060830188610774565b6107ff6080830187610774565b61080c60a0830186610774565b61081960c0830185610774565b61082660e0830184610774565b9998505050505050505050565b6000604051905081810181811067ffffffffffffffff8211171561085a576108596109ca565b5b8060405250919050565b600067ffffffffffffffff82111561087f5761087e6109ca565b5b601f19601f8301169050602081019050919050565b600081519050919050565b600081905092915050565b60006108b5826108bc565b9050919050565b600073ffffffffffffffffffffffffffffffffffffffff82169050919050565b6000819050919050565b82818337600083830152505050565b60005b838110156109135780820151818401526020810190506108f8565b83811115610922576000848401525b50505050565b6000610933826108dc565b915060008214156109475761094661099b565b5b600182039050919050565b600061095d826108dc565b91507fffffffffffffffffffffffffffffffffffffffffffffffffffffffffffffffff8214156109905761098f61099b565b5b600182019050919050565b7f4e487b7100000000000000000000000000000000000000000000000000000000600052601160045260246000fd5b7f4e487b7100000000000000000000000000000000000000000000000000000000600052604160045260246000fd5b610a02816108aa565b8114610a0d57600080fd5b50565b610a19816108dc565b8114610a2457600080fd5b5056fea26469706673582212206b8103875480622a3cc6eae6c01b46232415fafa84272eb1e2cf456476ed9fa464736f6c63430008000033",
  "immutableReferences": {},
  "source": "// SPDX-License-Identifier: MIT\r\npragma solidity ^0.8.0;\r\n\r\ncontract BloodBank {\r\n    uint public totalBloodUnits;\r\n\r\n    event BloodBankAdded(address indexed bbAddress, string indexed bbName);\r\n    event BloodTransferred(address indexed from, address indexed to, uint bloodType);\r\n\r\n    struct BloodBank {\r\n        uint apos;\r\n        uint aneg;\r\n        uint bpos;\r\n        uint bneg;\r\n        uint abpos;\r\n        uint abneg;\r\n        uint opos;\r\n        uint oneg;\r\n    }\r\n\r\n    mapping (address => BloodBank) public bloodBanks;\r\n\r\n    function addBloodBank(address _bbAddress, string memory _bbName) external {\r\n        bloodBanks[_bbAddress] = BloodBank(0, 0, 0, 0, 0, 0, 0, 0);\r\n        emit BloodBankAdded(_bbAddress, _bbName);\r\n    }\r\n\r\n    function transferBlood(address _to, uint _bloodType) external {\r\n        BloodBank storage fromBank = bloodBanks[msg.sender];\r\n        BloodBank storage toBank = bloodBanks[_to];\r\n\r\n        if (_bloodType == 1 && fromBank.apos > 0) {\r\n            fromBank.apos--;\r\n            toBank.apos++;\r\n        } else if (_bloodType == 2 && fromBank.aneg > 0) {\r\n            fromBank.aneg--;\r\n            toBank.aneg++;\r\n        } else if (_bloodType == 3 && fromBank.bpos > 0) {\r\n            fromBank.bpos--;\r\n            toBank.bpos++;\r\n        } else if (_bloodType == 4 && fromBank.bneg > 0) {\r\n            fromBank.bneg--;\r\n            toBank.bneg++;\r\n        } else if (_bloodType == 5 && fromBank.abpos > 0) {\r\n            fromBank.abpos--;\r\n            toBank.abpos++;\r\n        } else if (_bloodType == 6 && fromBank.abneg > 0) {\r\n            fromBank.abneg--;\r\n            toBank.abneg++;\r\n        } else if (_bloodType == 7 && fromBank.opos > 0) {\r\n            fromBank.opos--;\r\n            toBank.opos++;\r\n        } else if (_bloodType == 8 && fromBank.oneg > 0) {\r\n            fromBank.oneg--;\r\n            toBank.oneg++;\r\n        }\r\n\r\n        totalBloodUnits++;\r\n        emit BloodTransferred(msg.sender, _to, _bloodType);\r\n    }\r\n\r\n    // Add functions to add blood units to respective banks for different blood types\r\n    // Implement other necessary functions as needed\r\n}\r\n",
  "sourcePath": "C:\\Users\\intag\\Desktop\\BlockchainProject\\bloodbankapp\\contracts\\BloodBank.sol",
  "compiler": {
    "name": "solc",
    "version": "0.8.0+commit.c7dfd78e.Emscripten.clang"
  },
  "schemaVersion": "3.4.16",
  "updatedAt": "2023-12-03T10:46:06.005Z",
  "networkType": "ethereum",
  "devdoc": {
    "kind": "dev",
    "methods": {},
    "version": 1
  },
  "userdoc": {
    "kind": "user",
    "methods": {},
    "version": 1
  }
}